:020000041000EA
:1000000000B5324B212058609868022188439860DF
:10001000D860186158612E4B002199600221596106
:100020000121F02299502B49196001219960352056
:1000300000F044F80222904214D00621196600F024
:1000400034F8196E01211966002018661A6600F04E
:100050002CF8196E196E196E052000F02FF8012189
:100060000842F9D1002199601B49196000215960AB
:100070001A491B48016001219960EB211966A021F2
:10008000196600F012F800219960164914480160C1
:100090000121996001BC002800D000471248134993
:1000A000086003C880F30888084703B5996A0420EC
:1000B0000142FBD001200142F8D103BD02B5186610
:1000C0001866FFF7F2FF186E186E02BD00000240BE
:1000D000000000180000070000035F00212200005C
:1000E000F4000018222000A00001001008ED00E03C
:1000F00000000000000000000000000074B24E7A12
:1001000000200420F7010010C3010010C5010010F9
:10011000C1010010C1010010C1010010C101001097
:10012000C1010010C1010010C1010010C701001081
:10013000C1010010C1010010C9010010CB01001065
:10014000CD010010CD010010CD010010CD01001037
:10015000CD010010CD010010CD010010CD01001027
:10016000CD010010CD010010CD010010CD01001017
:10017000CD010010CD010010CD010010CD01001007
:10018000CD010010CD010010CD010010CD010010F7
:10019000CD010010CD010010CD010010CD010010E7
:1001A000CD010010CD010010CD010010CD010010D7
:1001B000CD010010CD010010CD010010CD010010C7
:1001C00000BE00BE00BE00BE00BE00BEEFF3058054
:1001D000103800BEF2EB887148A1021068A102102D
:1001E0003402001090A31AE700201F49086006C8D7
:1001F00081F3088810471D48006800282FD10DA4FE
:100200000ECC002902D000F012F8F9E71849194A7B
:10021000002000E001C19142FCD1174988471749ED
:1002200088471749884700BEFDE701C901C29A42C5
:10023000FBD3704768A10210C0000020A82E002048
:1002400050CF0210000004200000042050CF021004
:10025000001004200010042000000000704709482E
:1002600011F086FF0047000008ED00E0000000D01C
:10027000A82E0020E44F0020750901100D75001014
:10028000A90A01105756000006005250ABB3605344
:10029000607A021006005250861C030200450210CC
:1002A000060052505422A29D707A0210050052504E
:1002B000DE65F46850CF0210F8B5C04610B5064CA4
:1002C0002378002B07D1054B002B02D0044800E017
:1002D00000BF0123237010BDC832002000000000C1
:1002E000203B0210044B10B5002B03D003490448F7
:1002F00000E000BF10BDC04600000000CC3200206E
:10030000203B02100023037001777047F0B5CE4602
:100310004746002380B50370864B04001A7F8FB0D8
:10032000FF2A00D1C2E0DB7EFF2B00D1BEE06A468F
:10033000814B9382067F0FF079FCFA220023920012
:1003400080185941002900DAB5E000237B4D029066
:100350000391009331002800023305AA17F0DAFC5C
:10036000002800DA9FE0F5236A469382267F0FF08B
:100370005DFCFA220023920080185941002900DA1E
:10038000A9E000230290039100933100280002337A
:1003900005AA17F0BFFC002800DA84E01226D0235B
:1003A0006E443370277F0FF041FCFA220023920045
:1003B00080185941002900DA91E00023029003914E
:1003C0000093320039002800013317F0A3FC002805
:1003D00069DB267F0FF02AFC0023594A8018594117
:1003E00000296CDB0023112202900391009331005D
:1003F000280001336A4417F0B1FC002863DB6B4628
:100400005B7C582B00D090E01E236B4499468823D8
:100410004F460126A1461C0033E000231322029020
:10042000039100934146280001336A4417F072FC9F
:10043000002838DB01200FF01FFB4B461B7F98463E
:100440000FF0F4FB00233E4A8018594100293EDB9F
:10045000002302900391009341462800023306AA2C
:1004600017F07CFC00282EDB6B461A8B31003A809B
:1004700034480234013614F031FDE4B202370D2E57
:1004800031D06B46DC744B461B7F98460FF0CEFB99
:10049000FA2200239200801859410029BDDA012078
:1004A00029494042B9E7294814F0C4FB0FB0C0BC49
:1004B000B946B046F0BD01202349404245E701203E
:1004C000214940428EE7224814F0B4FBEEE70120B8
:1004D0001D494042BCE701201B49404251E7012031
:1004E0001949404269E707AB59881A4A4C461180BE
:1004F00099885180D98891801989D180998A588AA0
:100500001D8B09040843D98A9E892D0429435D89DE
:10051000360435431E8ADB8936043343D360012316
:100520009560106151612370C0E70B4814F082FBA5
:10053000BCE7C0462C3C0020F4330000A824002077
:10054000DC0500006C3B0210FFFFFF7F203B021028
:10055000383B0210A82E0020503B0210F0B5CE46CA
:10056000474680B5040089B00DF04AFC236AC01AE2
:100570007F4B984200D8EBE01725F7236D442B7092
:10058000267F0FF053FBFA22002392008018594176
:10059000002900DAD0E00023764F02900391009307
:1005A0002A0031003800013317F0B4FB002800DACC
:1005B000D1E0257F0FF03AFB00236F4A80185941A4
:1005C000002900DABCE0002306AE029003910093FC
:1005D000320029003800063317F0C0FB002800DA8B
:1005E000BFE07378F5789846B3782D04994633794F
:1005F00037781B021D4373791D430DF001FC5F4EDC
:100600002B12328820629B1AED115B435200AA1A0A
:100610000221755E1B1355430421725EED12534394
:100620009B13ED18AB005B1980331B12A360544B76
:100630006D109C466544AB105B430A21725E5913F2
:1006400051430820325EC9106A4352108918802233
:10065000120294468914F28861445143C91363D04D
:100660001020325EDB1253430E20325E3F045543AE
:100670006D00ED18434618024B4607431F430C23F9
:10068000F05EAD100004401900133D1145196B01D7
:100690005B1B980040198300C0188300C018394BB9
:1006A0004042C01850D4400011F0BCFD0200D308F5
:1006B0005B43580B1621735E910843431425705F0A
:1006C0001B134843401318181221735E0021C018F1
:1006D0000023001180186361206113F0E7FE051C00
:1006E00013F0F2FE0022284B11F0F5FF274B284AA9
:1006F0001D60284B12F02CFD02000B000020264943
:1007000011F0D7FF0022254B12F003F812F092F8F7
:1007100060600020226A636A6262D31AA36109B032
:10072000C0BCB946B046F0BD002200230020002125
:10073000002522616361D9E70120194940422AE777
:100740000120174940423EE711F06CFD4200AEE740
:1007500001204042E3E7134814F06CFA01204042C4
:10076000DDE7114814F066FA01204042D7E7C046A1
:100770001F4E0000A8240020DC050000A82E002049
:100780000006FFFF000050C3D0BCF840202200202C
:10079000EBE2361AC05BC83F0000F03F1AE9504157
:1007A000FFFFFF7F203B0210883B02100F230278DF
:1007B00070B51A40027042880400134043800DF067
:1007C0000FFB050023F0FCF8227803005107C90F46
:1007D000814209D0E56001200422034020789B007B
:1007E00090431843207070BDE168691A3229F2D92C
:1007F0009007C00F1207984200D19BE0D10F012251
:100800004A40002A0AD01900002847D101220826B0
:100810000A40D0002278B24302432270002924D03B
:1008200021798A07920F022A75D0032A4AD0002A1A
:1008300038D0FA20A2684000AA1A8242CBD3032201
:10084000914302221143217140212278E6380A4364
:100850002270A278E1781207120FFF38013A0240A5
:1008600081430A43A560E270B5E721798A07920FB8
:10087000022A43D0032A33D0012AACD1A178032025
:10088000CA43120759D003212279A5608A43202147
:100890000243227122780A4322709CE701225A40C7
:1008A000D1B2B3E7012003329143014321710F21FB
:1008B000A278A5608A4302431021A27022780A43DD
:1008C000227088E7914301220F2011432171A17802
:1008D000A5600A07120F0132024081430A43EBE789
:1008E000FA26A0687600281AB04200D273E7A078F2
:1008F00091430001A560A07021716CE70322914330
:1009000021710F21A278A5608A432021A27022784C
:100910000A4322705FE78022217852420A430F2166
:100920002270A278E0781207120E103A01400A43B2
:10093000E27050E7D20F110063E709010020A170B7
:10094000A1E7C046F0B5D6464F46464698462E4BE0
:10095000C0B51B6888B0994601232C4F07AC2170A5
:10096000050000930E00924601002200380017F0A7
:1009700069F90FF05BF94B464A465B019B1A9B00F5
:1009800099440490059149460023CA0004980599AA
:1009900080185941002933DB0290039102A98C464B
:1009A000002313220093290001333800624417F01A
:1009B000D5F94346002B1CD052460123934002AA8E
:1009C000D27C1343DBB202AAD37463700023267077
:1009D0002200009329000233380017F033F9C0B227
:1009E000431E9841C0B208B0E0BCBA46B146A84622
:1009F000F0BD534601229A4002ABDB7C9343E2E711
:100A0000012003494042C7E748210020A8240020D4
:100A1000FFFFFF7FF0B5DE4657464E464546E0B540
:100A200087B09B4610AB1B782C4F9A462C4B04008A
:100A30001B680D0099466B46197501230100009350
:100A40009046380005AA17F0FDF80FF0EFF84B4676
:100A50004A465B019B1A9B0099444E460023F200D4
:100A600080185941002935DB00231322029003919D
:100A700000932100013338006A4417F06FF943B244
:100A80000020002B1FD043465A4659469A1A01238C
:100A90008B40514601329140013B9340CAB26946B6
:100AA000C97C994313406A460B43D374537515753B
:100AB000022300902100380005AA17F0C3F8C0B245
:100AC000431E9841C0B207B0F0BCBB46B246A9462F
:100AD000A046F0BD012003494042C5E7A8240020FC
:100AE00048210020FFFFFF7F30B51A4C1A4D2560CA
:100AF0001A4C1B4D25601B4C1B4D25601B4C206068
:100B00001B4801601B491C484B60039B0A608B60BB
:100B100000231A4ACB601A490A601A490B601A4925
:100B20000B601A490B601A490B601A490A601A498E
:100B30000B601A490B601A490B601A490B601A497D
:100B400008601A490B601A490B601A490B601A4B6E
:100B50001A6030BD68330020000048436033002035
:100B6000000048425C3300200AD7A33B64330020D6
:100B7000B8330020A83300200050C3470080BB4496
:100B8000A4330020A0330020983300209C330020A1
:100B90009433002090330020883300208C330020D1
:100BA00078330020743300206C3300207033002031
:100BB000843300207C33002080330020F0B5DE46F3
:100BC00057464E464546E0B5B14D8FB06B68041CA4
:100BD000E968A868984613F096FB211C13F0ADFB5A
:100BE000211C061C404613F0A8FB296813F08EFB5D
:100BF000211C071C301C13F0A0FBFC21890513F0FD
:100C00009CFB011C381C13F081FB311C2860404602
:100C100013F07CFB211C6860201C13F08EFB051C6C
:100C2000011C201C13F089FB291C0190281C13F0C7
:100C300084FBFC210B908905281C13F07EFB954B4F
:100C4000061C1B689846944B1B689A46934B50466B
:100C50001B68191C0A9313F056FB914A07901768FA
:100C6000904A12689146904A48461268111C0492B4
:100C700013F049FB8D4B8E4A1B6812680290111CC1
:100C8000181C0692059313F041FB8A4B08901B68D1
:100C90000798391C9B46039713F038FB211C13F06F
:100CA0004CFB414613F032FB8349071C301C13F008
:100CB00044FB029913F041FB011C381C13F026FB86
:100CC0000199071C584613F038FB011C381C13F01F
:100CD0001AFBFC21071C8905019813F02EFB0899CB
:100CE00013F02BFB011C381C13F010FB734F0C90FE
:100CF0003968059813F007FB211C071C484613F0C0
:100D00001CFB514613F002FB311C8246381C13F0C9
:100D100014FB011C504613F0F9FA0D900699584641
:100D200013F0F1FA211C0990049813F006FB0A99BC
:100D300013F0ECFA311C8246099813F0FEFA011CFC
:100D4000504613F0E3FA211C8246381C13F0F5FAE2
:100D5000494613F0DBFA5A4F81464146404613F0AC
:100D6000D5FA211C13F0E9FA396813F0CFFA291CDF
:100D70008046079813F0E1FA011C404613F0C6FACA
:100D8000311C8046039813F0D8FA011C404613F03A
:100D9000BDFA0199061C029813F0CFFA011C301C11
:100DA00013F0B4FAFA210B9B061C8905181C98460F
:100DB00013F0C3FA089913F0C0FA011C301C13F0A9
:100DC000A5FAFC21061C8905404613F0B6FA5946DF
:100DD00013F0B3FA011C301C13F095FA53460C9A29
:100DE00038602C4F0D9E3A602B4F59463E602B4F7A
:100DF00058463B60334B1A6013F088FA059B011C80
:100E0000181C984613F07FFA069F391C13F07EFADF
:100E1000291C13F092FA211C051C201C13F076FAF1
:100E2000029913F08AFA039913F070FA011C281C36
:100E300013F06CFA4D461A4B211C1860194B099897
:100E40001D6013F07AFA049913F060FA5446164BB9
:100E5000414618601C4B1E601C4B1D601C4B1C60E7
:100E60005C46164B1C601B4B186813F04FFA0F4B77
:100E7000391C1860184B186813F048FA0C4B1860AE
:100E80000FB0F0BCBB46B246A946A046F0BDC04676
:100E9000A8330020A0330020983300209C3300208A
:100EA00090330020883300208C3300206C330020E6
:100EB0008033002070330020000040407C3300204D
:100EC000A4330020943300207833002074330020B2
:100ED00084330020643300205C330020F0B5DE460C
:100EE00057464E464546E0B5FE4D0E1C296895B066
:100EF0000F9210930A9113F006FA071CA8680B9042
:100F0000011C301C13F0FFF9F74BF84C1B682468E8
:100F10009B46F74B11901B68201C0193F54BA24692
:100F2000196813F0F3F9F44B80461968019813F02F
:100F3000EDF9EA68041C111C301C0C9213F0E3F963
:100F4000EE4B460076081968301C13F0F6F9311C98
:100F500013F0F3F9211C13F0D9F9FE21041C8905C3
:100F6000301C13F0D3F9011CE54813F0D2F9E54B1E
:100F7000211C1860404613F0E0F95946061C5846FB
:100F800013F0DBF9011C301C13F0BDF9011CFE202D
:100F9000800513F0BEF9061C011C201C802413F0F0
:100FA000CCF9240681465946301913F0C6F9311C94
:100FB000041C404613F0C1F949468046504613F0E0
:100FC000BCF9211C061C584613F0B7F9011C301C53
:100FD00013F09CF956460590211C50460E9613F0CE
:100FE000ACF94146061C584613F0A7F9011C301C09
:100FF00013F08CF9C44E494636680290B246C34E8F
:1010000050463668039613F098F9211C061C039885
:1010100013F093F9011C301C13F078F9211C069091
:10102000504613F08AF94146061C039813F085F9DF
:10103000011C301C13F06AF9B54B061C1B684946AD
:10104000181C049313F079F9211C8246019813F0BF
:1010500074F9011C504613F059F9211C07900498AB
:1010600013F06BF941468246019813F066F9011CB2
:10107000504613F04BF90890A64BA74A1B6812681C
:10108000181C494692460D9313F057F9211C8146CE
:10109000504613F052F9011C484613F037F9211C51
:1010A00009900D9813F049F94146041C504613F07D
:1010B00044F9011C201C13F029F905998246381CBB
:1010C00013F03BF9029B041C9846191C119B181C39
:1010D000994613F032F9011C201C13F017F90A99F4
:1010E00013F014F906990D902860381C13F025F9B7
:1010F000311C041C484613F020F9011C201C13F07D
:1011000005F9696813F002F9079911906860381CB5
:1011100013F013F90899041C484613F00EF9011C4A
:10112000201C13F0F3F80B9913F0F0F8A86009995C
:10113000381C13F002F957465146041C48460A97DA
:1011400013F0FBF8011C201C13F0E0F80C9913F0CD
:10115000DDF8E860FE200599800513F0D4F86F4DA6
:10116000041C2D68011CA9466D4D48462D6813F0DE
:10117000E4F8AA464146051C504613F0DEF8011C6F
:10118000281C13F0C0F8211C0B90584613F0D5F81A
:101190004146051C019813F0D0F8011C281C13F0DF
:1011A000B2F8604D0C902D68211CA846404613F003
:1011B000C4F85D4D02992F68051C381C13F0BDF86A
:1011C000011C281C13F09FF8802212069446069DED
:1011D00005906544291C484613F0AFF8534A11683E
:1011E000914613F093F8311C0690504613F0A5F881
:1011F000011C069813F087F859460690281C13F036
:101200009CF8039913F082F8311C8246019813F080
:1012100094F8011C504613F076F8291C12904046B1
:1012200013F08BF8424D296813F070F8AA46311C70
:10123000051C381C13F081F8011C281C13F063F8FE
:10124000802613903606FE20B446079D0899800537
:10125000654413F058F8291C061C4046039513F00A
:101260006CF8311C051C381C13F067F8011C281C95
:1012700013F04CF880231B069C46099A051C624417
:101280001000414613F059F80A998046381C13F0B3
:1012900054F8011C404613F036F8264F396813F015
:1012A00035F8B846211C071C0E9813F046F8029931
:1012B000041C049813F041F8011C201C13F023F8BF
:1012C0000A4A164C10600B9A0C992260064C154B7A
:1012D0002160059C13981C600B4C129B22604A46AF
:1012E0002AE0C046A833002098330020A433002011
:1012F0006C3300206833002060330020B8330020B6
:101300000AD7A33B5C3300209433002088330020AD
:1013100078330020843300207C330020A033002069
:10132000743300209C330020703300209033002061
:101330008C33002080330020069C146052461060DD
:101340001548164C016016482360036059460398FF
:1013500012F0F3FF0199041C301C12F0EEFF011C87
:10136000201C12F0D3FF0F4E059930600E48056027
:101370000E4801600E490D6041460F600F9A0D9CAA
:10138000119B1460109A136015B0F0BCBB46B246B6
:10139000A946A046F0BDC04678330020883300201F
:1013A000743300206C33002070330020843300201D
:1013B0007C33002001707047012330B50400002504
:1013C00083B002226B21007800930233FFF722FBE7
:1013D000022304221B2120780095FFF71BFB022328
:1013E00004221C2120780095FFF714FB002306221D
:1013F0006B212078FFF7A6FA03B030BD00B583B0AB
:1014000003230222007800911A21FFF703FB03B0A7
:1014100000BDC046084A002330B502620025002402
:101420003C220370436383630177835404644564FF
:101430008464C564036530BD19FCFFFF0F22CB89AE
:10144000F0B51A4045469046FF2257464E46DE46C6
:101450009343E0B59C46CB810D00FF238022C02141
:1014600001240027002099461202490125E04E463A
:1014700033407B40134200D04B405B00134200D00E
:101480004B405B00134200D04B405B00134200D046
:101490004B405B00134200D04B405B00134200D036
:1014A0004B405B00134200D04B405B00134200D026
:1014B0004B4001305F0010280CD043105B005B5B99
:1014C0005E425E417642344001260642CFD11B0A7D
:1014D0007B40CFE7634642461343EB81002C0BD1A0
:1014E0003804000F801A431E98414042F0BCBB46AE
:1014F000B246A946A046F0BD01204042F6E7C046EC
:10150000F0B54E46DE46574645460023E0B503702B
:10151000494B06001A7F87B0FF2A72D0DB7EFF2B73
:101520006FD013241E236C442370057F0EF07EFBC6
:10153000FA22002392008018594100296CDB002315
:101540003E4F02900391009322002900380001339E
:1015500016F0E0FB002863DB0A200EF08DFA102362
:101560009B4600239946603B9B1B35009A46B0463C
:10157000B34428E04B4602900391009322000123DC
:101580003100380016F0C6FB00284DDB43461E7FB5
:101590000EF04CFB00232A4A80185941002937DB02
:1015A0004B4602900391009331000223380005AAB4
:1015B00016F0D4FB00283BDB6B469B8A02355BBAF6
:1015C0006B84AB4513D04B46AB8453465B192370F9
:1015D00043461E7F0EF02AFBFA2200239200801859
:1015E00059410029C6DA012016494042C2E7414666
:1015F000404624314646FFF721FF002801D1012350
:10160000337007B0F0BCBB46B246A946A046F0BD59
:1016100001200C494042C3E701200A4940428EE7BD
:10162000094813F007FBECE7084813F003FBE8E771
:10163000074813F0FFFAE4E72C3C0020A824002020
:10164000DC050000FFFFFF7FA03B0210BC3B021047
:10165000DC3B0210F0B587B000236A4603621375C5
:101660000400067F0EF0E2FAFA22002392008018AE
:101670005941002937DB0023234D02900391009349
:1016800031002800013305AA16F044FB00282EDBA8
:10169000236A002B24D101232362277F0EF0C6FA90
:1016A00000231A4A80185941002928DB002602909D
:1016B0000391032339002800009605AA16F04EFB7B
:1016C000431C0AD06B46187D5B7D00041B02184347
:1016D0006B469B7D2662184303E00D4813F0AAFA7F
:1016E000002007B0F0BD01200A494042C3E70A4884
:1016F00013F0A0FA01235B4200202362F1E70120EE
:1017000004494042D2E7C046A8240020DC0500007E
:10171000143C0210FFFFFF7FFC3B0210F0B5036D8D
:101720000700466C83B0002B02D1C36C8363330087
:10173000F3185C0800250023F98D388E0A02A41ADC
:101740009D41002122002B0012F0C0FDFA23DB0096
:101750009C464902C00D0843604422002B00B8603B
:101760003E65788D002112F0B1FD0E060B120021AE
:10177000020A3243FE8CF003801859413A6C002370
:1017800012F0A4FDCE02430D334300934B15B88DE8
:101790002200019300212B0012F098FD00254C0639
:1017A000CB11398DC20922430C0412196B410098E8
:1017B0000199801A9941194A002312F087FD4B04C0
:1017C000C00B1843C91312F071FE12F07DFE144ACB
:1017D000144B10F09EFF11F095F8134B186012F0A7
:1017E00073FE0022114B10F076FF114A114B11F0DD
:1017F000AFFC02000B0000200F4910F05AFF00223E
:101800000E4B10F086FF11F07DF8FA6CBB6B786020
:10181000D31ABB61BA6303B0F0BDC0461027000005
:101820002D431CEBE2361A3F20220020D0BCF840AA
:10183000EBE2361AC05BC83F0000F03F1AE95041A6
:1018400070B50378040086B0002B0ED00CF0D8FAE7
:10185000A36CC01A534B984207D93C23E35C012B7D
:1018600008D0022B5BD0002B32D001256D4228001E
:1018700006B070BD2000FFF7EDFE256A2064002D44
:10188000F5D1582317356D442B70267F0EF0CEF915
:10189000FA22002392008018594100297DDB0023A1
:1018A0000290039100932A0031003F48013316F063
:1018B00031FA002866DB256A002DD8D13C230222AC
:1018C000E2540CF09DFA0125A064E0646D42CEE77D
:1018D000172548226D442A702362267F0EF0A6F950
:1018E000FA220023920080185941002946DB002388
:1018F0000290039100932A0031002B48013316F027
:1019000009FA00283EDB256A002DB0D13C230122D4
:10191000E2540CF075FA0125A0646D42A7E720009F
:10192000FFF798FE256A6064002DA0D14823173583
:101930006D442B70267F0EF079F9FA220023920075
:1019400080185941002924DB002302900391009361
:101950002A0031001448013316F0DCF9002811DBAD
:10196000256A002D00D082E73C230122E2540CF0CE
:1019700047FAA0642000FFF7D1FE78E701200B4969
:101980004042B4E701250A486D4213F053F925623D
:101990006DE7012005494042D6E701200349404256
:1019A0007DE7C0461B250000A8240020FFFFFF7F25
:1019B000FC3B021000230370C3640365017770478A
:1019C0000023F0B50370AB4B04001A7F8DB0FF2AE3
:1019D00000D114E1DB7EFF2B00D110E16A46A64B5B
:1019E000282013830EF048F8267F0EF01FF9FA2204
:1019F0000023920080185941002900DA01E10023F8
:101A00009E4D02900391009331002800023306AAF4
:101A100016F080F9002800DAF7E028200EF02CF804
:101A20000D236A46D375267F0EF000F9FA220023B3
:101A3000920080185941002900DAEEE000231722B5
:101A40000290039100933100280001336A4416F09C
:101A500061F9002800DAE4E0267F0EF0E7F80023C1
:101A6000874A80185941002900DADEE00023162257
:101A70000290039100933100280001336A4416F06C
:101A80006DF9002800DADCE06B469B7D102B00D05E
:101A9000BFE06A46D375267F0EF0C8F8FA2200230D
:101AA000920080185941002900DACEE00023172265
:101AB0000290039100933100280001336A4416F02C
:101AC00029F9002800DAC4E0277F0EF0AFF80023E0
:101AD0006B4A80185941002900DABEE0002307AEA6
:101AE000029003910093320012333900280016F05F
:101AF00035F9431C00D1B8E00023F35671783078F3
:101B0000DB1700010A091B0B02431B031343A386C7
:101B100008231A000A40501E8241F02009020001E9
:101B20000140B078524201430320120B12030A43D2
:101B3000E286F7783056317972793F03C017090190
:101B40003943000D17090005394301431340A163D0
:101B5000591E8B41F021120409030A40F1885B42AF
:101B600049BA89B21B0D0A431B0513434022E363A4
:101B700033895BBAA352738902325BBAA352B38929
:101B800002325BBAA352F38902325BBAA352338AA0
:101B900002325BBAA3526A463A4B1383267F0EF099
:101BA00045F8FA220023920080185941002958DB99
:101BB000002302900391009331002800023306AA0B
:101BC00016F0A8F8002838DB6A462F4B1383267FCF
:101BD0000EF02CF8FA2200239200801859410029B7
:101BE00027DB002302900391009331002800023389
:101BF00006AA16F08FF800281FDB012323700DB012
:101C0000F0BD012021494042F9E6214813F012F8C5
:101C1000F5E7204813F00EF8F1E701201B49404298
:101C20000CE71D4813F006F8E9E701201749404288
:101C30001CE7012015494042D3E7184812F0FAFF8B
:101C4000DDE7174812F0F6FFD9E701200F494042BF
:101C50002CE7144812F0EEFFD1E701200B49404277
:101C60003CE7012009494042A2E70F4812F0E2FF99
:101C7000C5E7C0462C3C00200C89FFFFA8240020AB
:101C8000DC050000060200000782FFFFFFFFFF7F68
:101C9000283C02106C3C02103C3C0210D03C02106C
:101CA000543C0210883C0210AC3C0210F0B51326E4
:101CB000002387B06E44337003620400077F0DF089
:101CC000B5FFFA220023920080185941002938DB21
:101CD0000023264D02900391009332003900280022
:101CE000013316F017F8002833DB267F0DF09EFF36
:101CF000FA220023520080185941002925DB0023D5
:101D000002900391009328003100033305AA16F0D6
:101D100025F80500431C23D0236A002B0FD16B4606
:101D20001422197D9A565B7D09041B020B436946F8
:101D3000D217897D120E12060B431343E36407B0DA
:101D4000F0BD01200A494042C2E701200849404253
:101D5000D5E7084812F06EFF01235B422362C4E717
:101D6000054812F067FF2562E9E7C046A824002075
:101D7000FFFFFF7FD03C0210E83C0210F0B50023CB
:101D8000132687B003626E44033333700400077F69
:101D90000DF04CFFFA2200239200801859410029CF
:101DA00036DB0023254D0290039100933200390069
:101DB0002800013315F0AEFF002838DB267F0DF038
:101DC00035FF00231E4A80185941002924DB0023D7
:101DD00002900391009331002800033305AA15F007
:101DE000BDFF00281CDB236A002B0FD16B46142299
:101DF000197D9A565B7D09041B020B436946D21775
:101E0000897D120E12060B431343236507B0F0BD04
:101E100001200C494042C4E701200A494042D6E76C
:101E2000094812F007FF01235B422362EEE70748EF
:101E300012F000FF01235B422362BFE7A8240020C9
:101E4000DC050000FFFFFF7F0C3D0210D03C0210BC
:101E500070B5060086B0006D10F0D4FC584B00221F
:101E600010F039FC009001913423F05E10F0CAFCB0
:101E7000544B002210F04DFC04003623F05E0D00A0
:101E800010F0C0FC009A019B10F043FC02000B0014
:101E90002000290010F016FC00224B4B10F039FCFA
:101EA00010F0C8FCB060F06C10F0ACFC0022444BA9
:101EB00010F011FC482304000D00F05E10F0A2FCAD
:101EC00022002B0010F025FC442302900391F05EC9
:101ED00010F098FC02000B000298039910F0F2FB3E
:101EE00022002B0010F015FC02900391F06B10F013
:101EF00089FC02000B000298039910F0E3FB22001A
:101F00002B0010F006FC02900391B06B10F07AFCED
:101F100002000B000298039910F0D4FB46230290B4
:101F20000391F05E10F06EFC22002B0010F0F1FB2C
:101F3000422304900591F05E10F064FC02000B0057
:101F40000498059910F0BEFB22002B0010F0E1FB75
:101F500040230400F05E0D0010F054FC02000B0062
:101F60002000290010F0AEFB009A019B10F0D1FB7D
:101F700002000B000298039910F0A4FB10F0C2FCC1
:101F8000124B1349186012F0C4F912F09DFA114A6D
:101F9000114B11F0DDF802000B0000200F4910F08A
:101FA00088FB00220E4B10F0B4FB10F0ABFC326B40
:101FB000B36A7060D31AB361B26206B070BDC04636
:101FC00000004C410000E03F00005940202200206A
:101FD00080E6C547EBE2361AC05BC83F0000F03F21
:101FE0001AE9504170B50378040086B0002B0ED07A
:101FF0000BF006FFE36AC01A524B984207D924231C
:10200000E35C012B08D0022B5AD0002B31D00125E4
:102010006D42280006B070BD2000FFF747FE256A1C
:10202000002DF6D1822305AD9B002B80267F0DF07D
:10203000FDFDFA22002392008018594100297CDB23
:1020400000230290039100932A0031003E4802339E
:1020500015F060FE002865DB256A002DD9D1242308
:102060000222E2540BF0CCFE0125E06220636D42B7
:10207000CFE723620933FF3305AD2B80267F0DF0B8
:10208000D5FDFA220023920080185941002945DB32
:1020900000230290039100932A0031002A48023362
:1020A00015F038FE00283DDB256A002DB1D1242330
:1020B0000122E2540BF0A4FE0125E0626D42A8E784
:1020C0002000FFF75BFE256A002DA2D1842305AD19
:1020D0005B002B80267F0DF0A9FDFA2200239200E1
:1020E00080185941002924DB0023029003910093BA
:1020F0002A0031001448023315F00CFE002811DBD1
:10210000256A002D00D084E724230122E2540BF03D
:1021100077FEE0622000FFF79BFE7AE701200B4983
:102120004042B5E701250A486D4212F083FD256261
:102130006FE7012005494042D6E7012003494042AC
:102140007EE7C04627230000A8240020FFFFFF7F72
:10215000D03C0210002303708372017242727047F8
:10216000002370B50500417A274CC3728900837A39
:1021700086B066180133DBB2032B33D8F25C18004B
:10218000082AF7D0AB72012305AC23701F4B120154
:102190005B181B5C5B001A437F235B421A4362702F
:1021A00003221B4B59180B5C5B011343A3702E7A5F
:1021B0000DF03CFDFA2200239200801859410029BD
:1021C00018DB002302900391009322003100114894
:1021D000033315F09FFD002810DB0BF001FE686053
:1021E00006B070BD625C082A01D10023C2E700205E
:1021F0000023C7E7012008494042E2E7074812F000
:1022000019FDFF23EB72E8E7183E0210283E02108A
:10221000303E0210A8240020FFFFFF7F303D021057
:1022200010B50400017A124812F058FE637A114A80
:102230009B00D358E361002323700F4B1A7FFF2AC2
:102240000DD0DB7EFF2B0AD02000FFF789FFE37A59
:10225000002B05D101332370084812F0EBFC10BDB0
:102260002378002BF8D1064812F0E4FCF7E7C046CB
:10227000483D0210203E02102C3C0020643D02101C
:10228000803D0210F0B54546DE4657464E46E0B565
:102290000578040089B0002D08D10025280009B078
:1022A000F0BCBB46B246A946A046F0BD0BF098FD77
:1022B0006368627AC01A844B9200A17A9B185A5CB8
:1022C0008823134102339842E7D9E37A002B00D0E8
:1022D000DDE002AB9C461127012367443B70237A63
:1022E00098460DF0A3FCFA22002392008018594171
:1022F000002900DAC3E00023744E0290039100939A
:102300003A0041463000013315F004FD002800DAA0
:10231000B9E0277A0DF08AFC00236D4A80185941F4
:10232000002900DABFE00290039102A900238C4645
:10233000122298460093390030000133624415F0B0
:102340000DFD002800DAB2E002AB9B7C7F2BA4D904
:1023500002AB9C461327434667443B70237A98465A
:102360000DF064FCFA2200239200801859410029E4
:1023700000DA94E000230290039100933A00414672
:102380003000013315F0C6FC00287CDB277A0DF005
:102390004DFC00234E4A80185941002900DA8BE099
:1023A000002302900391009339003000023307AA02
:1023B00015F0D4FC00287ADBA67AB300984602AB6D
:1023C000A0449F8A4346DB68FFBA9C464346674465
:1023D000DF60A3199A4652461B7F013BDBB213779D
:1023E000002B48D1637A04939B009946394B4B44A8
:1023F0009B5D002B64D080208001184110F002FA10
:10240000FC2300229B0510F084F910F07BFA059064
:10241000314B38004B449B5D9B4611F0E5FF071C98
:10242000584611F0DCFF011C381C11F072FF0599B1
:1024300011F083FF4B469F19284BBF00F95811F04C
:102440007CFF12F0A9F8264BF95811F05FFF11F04C
:10245000EDFF434642461862012313630023D36015
:1024600053465A46010004981A7706308000301807
:10247000C0B20BF0D7FC2000FFF772FE0EE7012080
:102480001849404237E7184812F028FD05E7174879
:1024900012F0D0FB2000FFF763FE0025FEE60120CE
:1024A0001049404266E701200E4940423BE7104890
:1024B00012F014FD0025F1E601200A4940426FE7C1
:1024C000F9239B050593A3E7303E0210A8240020C2
:1024D000DC050000283E0210203E0210383E0210AB
:1024E000F83D0210FFFFFF7FD03D02109C3D02101F
:1024F000E43D021010B500230C000022002105E08D
:1025000001314AB24B00D2175BB222405340DAB2DB
:10251000520052B21B0601D5624052B2D3B25B00E8
:102520005BB2002A01DA63405BB2DAB2520052B207
:10253000002B01DA624052B2D3B25B005BB2002AD8
:1025400001DA63405BB2DAB2520052B2002B01DA18
:10255000624052B2D3B25B005BB2002A01DA634040
:102560005BB2DAB2520052B2002B01DA624052B2D0
:102570004254FF29C4D110BD405C704710B504001F
:102580001800002A08D08A18D2B20B7801315840BE
:10259000CBB2205C9A42F8D110BDC046F0B5C64619
:1025A00000B5124C82B0A369DB0613D46B46DE1D66
:1025B0000F4B102598460F4FA3691D42FCD123688D
:1025C0003100380033700DF035FE002806D0A369C5
:1025D0001D42F1D002B080BCB846F0BD404612F0BA
:1025E00029FBA3691D42E7D0F4E7C0460080034001
:1025F000583E0210F03C0020F0B5C64600B5124C23
:1026000082B0A369DB0613D46B46DE1D0F4B102589
:1026100098460F4FA3691D42FCD123683100380052
:1026200033700DF007FE002806D0A3691D42F1D0DB
:1026300002B080BCB846F0BD404612F0FBFAA36978
:102640001D42E7D0F4E7C04600400340743E02104C
:10265000CC3C002070B5294E82B0F37CFF2B4BD0D0
:102660000CF0C0FB8022264C264D030052000121B5
:1026700020000DF0CDFD2800316A0DF04BFEC02288
:102680002B6B12021340204A022113601023EA6AC6
:1026900013401E4A1360F07C0CF0A0FA15201C4970
:1026A0000CF000FC012115200CF0B8FB5023AB63AB
:1026B0006A6B183B1340174A0025136004E06B4611
:1026C0002000D91D0DF0EEFD2268EFF3108172B6E7
:1026D0001368002BFCD0BFF35F8F238962899B1A9C
:1026E00002D5E2890132D3182268BFF35F8F1560EB
:1026F00081F31088002BE2D102B070BD2C3C002089
:10270000F03C002000800340309003402C900340B8
:102710009D2500103490034070B5294E82B0337D62
:10272000FF2B4BD00CF05EFB8022264C264D030085
:102730005200012120000DF06BFD2800316A0DF0E0
:10274000E9FDC0222B6B12021340204A02211360C4
:102750001023EA6A13401E4A1360307D0CF03EFAE3
:1027600014201C490CF09EFB012114200CF056FB98
:102770005023AB636A6B183B1340174A0025136064
:1027800004E06B462000D91D0DF08CFD2268EFF3AC
:10279000108172B61368002BFCD0BFF35F8F2389C2
:1027A00062899B1A02D5E2890132D3182268BFF3ED
:1027B0005F8F156081F31088002BE2D102B070BDED
:1027C0002C3C0020CC3C0020004003403050034013
:1027D0002C500340F925001034500340F0B5C64694
:1027E00000B5404B82B0DB7CFF2B61D03E4E3F4CAE
:1027F000731C98463E4D2268EFF3108172B6136841
:10280000002BFCD0BFF35F8F238962899B1A02D50E
:10281000E28901329B182268BFF35F8F00201060AD
:1028200081F31088002B43D06B462000D91D0DF09A
:1028300039FD2B78042BDED82E4A9B00D3589F46B7
:102840002D490A78531CDBB20B706946C8792B49B5
:102850008854162BCFD1123B2B70CCE76B46DB791B
:10286000162B2CD0C82B20D101232B70C3E76B462D
:10287000DB79182B20D0C82B17D1BCE76B46DB794E
:10288000C82BB8D101232B70B5E71D4F1621380096
:10289000FFF772FE194E0300162231003800FFF7D1
:1028A0006DFE6B46DB7983420FD000232B70A2E7CD
:1028B00002B080BCB846F0BD163B2B709BE70022EF
:1028C000133B2B700C4B1A7095E7162231004046D3
:1028D00012F048F80BF084FA0A4B18600A4B1860A3
:1028E000E3E7C0462C3C0020F4490020F03C0020E7
:1028F000A84F0020903E0210A74F0020CC330020AC
:10290000043D0020AC470020A8470020F0B5C64693
:1029100000B5404B82B01B7DFF2B61D03E4E3F4C3B
:10292000731C98463E4D2268EFF3108172B613680F
:10293000002BFCD0BFF35F8F238962899B1A02D5DD
:10294000E28901329B182268BFF35F8F002010607C
:1029500081F31088002B43D06B462000D91D0DF069
:10296000A1FC2B78042BDED82E4A9B00D3589F461F
:102970002D490A78531CDBB20B706946C8792B4984
:102980008854162BCFD1123B2B70CCE76B46DB79EA
:10299000162B2CD0C82B20D101232B70C3E76B46FC
:1029A000DB79182B20D0C82B17D1BCE76B46DB791D
:1029B000C82BB8D101232B70B5E71D4F1621380065
:1029C000FFF7DAFD194E0300162231003800FFF739
:1029D000D5FD6B46DB7983420FD000232B70A2E735
:1029E00002B080BCB846F0BD163B2B709BE70022BE
:1029F000133B2B700C4B1A7095E7162231004046A2
:102A000011F0B0FF0BF0ECF90A4B18600A4B18609C
:102A1000E3E7C0462C3C0020F4490020CC3C0020D9
:102A2000AE4F0020A43E0210AD4F0020F83300202E
:102A3000043D0020AC470020B047002010B5D52150
:102A40000148FFF757FD10BD043D0020F0B5474693
:102A5000CE4680B5464B85B098469B7DFF2B71D006
:102A6000444C4549206814F067FD444B25681F68B5
:102A700043469C7D1B6A060098460123A340994665
:102A80001A003900280014F0BBFD4A464B463900B5
:102A9000280014F007FE3A4B2000E9184B1E99411C
:102AA00006310CF09BF880235B020093F31CF201CB
:102AB0001B031343334A052013408022D2051343DE
:102AC0000193A3022343304C1C43304B03940293E5
:102AD0000DF036FE11F083FC4346041CD80011F0C3
:102AE0007EFC011C201C11F014FC804611F0D0FC6F
:102AF00084B20023002C2AD124043200390028009B
:102B00001C436B46009414F077FE0123BB402A68F7
:102B1000012013432B6015F045F91D4B1D4A186029
:102B2000C3021340112213431B4A80011360A022E9
:102B3000D2059446194A60440260194A4260002254
:102B40008260036105B0C0BCB946B046F0BD20004C
:102B500011F045FC011C404611F0D5FB8721C90549
:102B600011F0EBFB11F094FCC3B21B02C4E7C046AA
:102B70002C3C00204C21002080400210003D002011
:102B80000000E0AFFFFFFF9F0000104000000C407E
:102B90000C3F0020F17F00FFC83B0020E432002002
:102BA00010002050F0B5C646464C474B00B5238078
:102BB0000323464E464F33700533A3700500B86DAE
:102BC000002845DC00230522E37032702371386E43
:102BD00000284DDC0021931CA1540132D2B2A15433
:102BE000B96FDBB2002952DD0A0CE2545A1CD2B292
:102BF000080AA054DA1C0233D2B2DBB2E154531CEF
:102C000033700023A11CA354324809229846FFF7D1
:102C1000B5FC3378AD005A1C3270E05442465C2358
:102C2000FA540BF0DDF82C4BF530FF30E8502B4B0D
:102C30001B78592B31D0A022D2059446284B1B6813
:102C40009B0163441C603278DA6180BCB846F0BDF9
:102C500064210BF0B7F8337882B2120AE2549A1C5E
:102C60000133D2B2DBB23270E054386E0028B1DDED
:102C700064210BF0A7F8327883B21B0AA354931C8B
:102C80000132D2B2A054B96FDBB20029ACDC002112
:102C90005A1CD2B2E154A154ACE7124812F01EF90A
:102CA0003378002B0AD000250F4F615D380012F0F9
:102CB00015F901353378EDB2AB42F6D80A2011F0A0
:102CC0006DFFB8E7E4320020EC0A0000A64F0020B8
:102CD000C8400020083E0020DC3C002025220020C7
:102CE0000C3F0020B83E0210C03E0210F8B5234D44
:102CF000234B244F2B800723AB708933FA58224E85
:102D000013B21B12EB700523040033702A710023E9
:102D10000322A91C1D48FFF731FC3378A4005A1C7C
:102D20003270E85400229423FA540BF059F8184BEF
:102D30003230E050174B1B78592B0AD0A022D20515
:102D40009446154B1B689B0163441D603278DA6121
:102D5000F8BD124812F0C2F83378002B0AD00024D4
:102D60000F4F295D380012F0B9F801343378E4B21E
:102D7000A342F6D80A2011F011FFDFE7E432002069
:102D8000EC040000C8400020A64F0020083E0020B0
:102D9000DC3C0020252200200C3F0020C83E021011
:102DA000C03E0210F8B5274D274B284F2B80092332
:102DB000AB708F3304000A21F8580FF00BFA244B44
:102DC000244E9C46604403B21B12EB700523032281
:102DD000337028710023A91C1F48FFF7CFFB3378FD
:102DE000A4005A1C3270E85400229C23FA540AF0C2
:102DF000F7FF1A4BF530FF30E050194B1B78592B79
:102E00000AD0A022D2059446164B1B689B0163444E
:102E10001D603278DA61F8BD134812F05FF833783C
:102E2000002B0AD00024114F295D380012F056F80B
:102E300001343378E4B2A342F6D80A2011F0AEFE92
:102E4000DFE7C046E4320020EC040000C840002068
:102E500010270000A64F0020083E0020DC3C002088
:102E6000252200200C3F0020D03E0210C03E021060
:102E7000F0B5C6462B4C2C4B00B523802B4B2C4D6C
:102E800098461E23A3708633EB5C0600002B40D0CF
:102E9000A023AF22EB5853431AB22371AC23121272
:102EA000E270EB5C002B3AD0A823AF22EB585343DF
:102EB0001AB212126271A371002742460923E77108
:102EC00013702772A11C002307221A48FFF756FB34
:102ED00043461B784146E0545A1CBC230A70EF5409
:102EE000183BEF540833EF540AF07AFFA022D205C2
:102EF00094464246104BF530B600FF30F0500F4B71
:102F00001B689B0163441C601278DA6180BCB84680
:102F1000F0BDE3702371AC23EB5C002BC4D1637173
:102F2000A371C9E7E4320020EC080000A64F00209E
:102F3000C8400020083E0020DC3C00200C3F002060
:102F4000F8B53D4C3D4B3E4D23800223A3702B68CA
:102F500007001A0EE2701A1422711A126271A3711C
:102F6000AB681A0EE2711A1422721A126272A372FC
:102F700028690FF047FC334B334A0FF0CAFB0FF0C0
:102F80007DFC80B2030AE3722073AB692F4E002BE5
:102F900035DB9AB2120A6273A373286A64210FF0B8
:102FA00019F9FA239B00C3189BB223741A0A12233F
:102FB000E2733370AB6A002263742C23A11CEA54C1
:102FC000234800231032FFF7D9FA3378BF005A1C88
:102FD000E05432700AF004FF1E4BF530FF30F85019
:102FE0001D4B1B78592B11D0A022D20594461B4BA8
:102FF0001B689B0163441C603278DA61F8BD184A93
:10300000D31A9BB21A0A6273A373C6E7154811F06C
:1030100065FF3378002B0AD00025134F615D38001F
:1030200011F05CFF01353378EDB2AB42F6D80A20DF
:1030300011F0B4FDD8E7C046E4320020EC110000E6
:10304000C84000203D0AD73F0AD7A370A64F0020F2
:10305000083E0020DC3C0020252200200C3F002000
:10306000A08CFFFFD83E0210C03E0210F8B5B34B53
:103070009B7DFF2B0DD0A022D2059446B04B1B6840
:103080009B0163441A69802315005B041D401A42AA
:1030900000D0F8BD0AF0A4FEAA4CAB4B22781E78F3
:1030A000531CDBB2042B07D8A8499D004F59B842E6
:1030B00014D3A74A52599746A4490B68984200D3A3
:1030C00004E100230133DBB29A008D58A8421AD3E1
:1030D000042B00D90FE19F4DAA5897460232D3B274
:1030E000052BF1D10B68984200D33DE10023013359
:1030F000DBB29A008D58A8421AD3042B00D901E103
:10310000954DAA5897460133DBB2052BF1D10B68D8
:10311000984200D32EE100230133DBB29A008D5890
:10312000A8421AD3042B00D9F3E08C4DAA58974635
:103130000133DBB2052BF1D10B68984200D31FE1BC
:1031400000230133DBB29A00895881420ED8042B48
:1031500000D9E5E082498A5897460133DBB2052B56
:10316000F1D10B68834200D810E10023237090E76F
:103170005C257C4A555D002D07D16435555D002DD9
:1031800003D17C35525D002AB1D002230220237086
:10319000FFF708FD7DE7A425724A555D002D03D198
:1031A000AC35525D002AA2D0032303202370FFF721
:1031B0005FFE6EE79C236B4AD35C002BA7D00423F1
:1031C00004202370FFF7EEFD63E75C25654A555D3B
:1031D000002DDAD16435555D002DD6D17C35525D98
:1031E000002AD2D198E7A4255E4A555D002DDBD197
:1031F000AC35525D002AD7D18EE79C23594AD35C67
:10320000002B99D0DBE79C23564AD35C002BA8D037
:10321000D5E75C25534A555D002DB6D16435555D23
:10322000002DB2D17C35525D002AAED189E7A425AC
:103230004C4A555D002DB7D1AC35525D002AB3D153
:103240007FE75C21474A515C00299ED16421515C93
:1032500000299AD17C21525C002A96D1237018E76C
:10326000A421404A515C00299ED1AC31525C002A15
:103270009AD123700DE79C223A498A5C002A9ED19C
:10328000237006E75C25374A555D002D00D07CE7AA
:103290006435555D002D00D077E77C35525D002AFE
:1032A00000D072E70EE794222E4DAA5C002A00D1CE
:1032B00008E7012301202370FFF718FDE9E69C23AE
:1032C000284AD35C002B00D10CE778E70023002EBE
:1032D00000D1F7E625700020FFF732FED9E6A425DD
:1032E000204A555D002D00D05EE7AC35525D002AC6
:1032F00000D059E7E6E694231A4AD35C002BD8D1D4
:103300000233F6E69423174AD35C002BD1D1023363
:1033100004E79423134AD35C002BCAD1023312E78B
:103320009423104AD35C002BC3D101332370B0E641
:10333000002E00D1C5E600232370CCE72C3C0020F2
:103340000C3F0020AC4F0020EC410020DC3C002072
:10335000E03E0210F43E0210083F02101C3F021033
:10336000303F0210C84000200023002E00D1BEE6EE
:103370002370B0E70023002E00D1CDE62370AAE72A
:103380000023002E00D1DCE62370A4E70023002EEA
:10339000D2D123707DE6C04610B5164811F04AFC24
:1033A000154C1648217811F099FD6178144811F0F8
:1033B00095FDA178134811F091FD2179E278090279
:1033C000114309040914104811F088FD63680F487F
:1033D0001902091411F082FD217AE27909021143E0
:1033E000090409140A4811F079FD617A094811F0BD
:1033F00075FD10BD443F0210AC3A0020543F02104E
:10340000643F0210743F0210843F0210943F021088
:10341000A43F0210B43F021010B51D4811F00AFC81
:103420001C4C1D48217811F059FD61781B4811F0A2
:1034300055FDA1781A4811F051FD6268E378110238
:103440001943184811F04AFDA268E37911021943A3
:10345000154811F043FD217BE37A09021943134813
:1034600011F03CFDE36812481902090C11F036FD19
:10347000217CE37B090219430E4811F02FFD617C8A
:103480000D4811F02BFDA17C0C4811F027FD10BD5B
:10349000C43F02102C420020543F0210643F02102F
:1034A000743F0210D03F0210E03F0210F03F0210C4
:1034B000004002101040021020400210B43F0210E1
:1034C00010B5124811F0B6FB114C1248217811F0DA
:1034D00005FD2179E378090219430F4811F0FEFC3C
:1034E00063680E481902090C11F0F8FC2189E37990
:1034F000090219430A4811F0F1FCA17A094811F0B8
:10350000EDFCE17A084811F0E9FC10BD30400210F2
:10351000944F0020543F02104040021050400210CF
:103520006040021070400210B43F021010B5D52167
:103530000148FEF7DFFF10BD083E0020F0B5DE4673
:1035400057464E4645468022E0B51E4B83B01A6072
:103550000AF056FC01221C4F1C4E3B6831680833B0
:103560009A4004004868104224D16846851D1848D6
:10357000184A8346FA20C0008246012090468146C0
:10358000126800E022009B005B58A21A1B0E5245F5
:1035900001D9114A1343290058462B800CF04AFEEA
:1035A00043464A461C603B68316808339A40486885
:1035B0001042E7D003B0F0BCBB46B246A946A046D5
:1035C000F0BDC04680E200E05421002050210020E0
:1035D0007C400020784000200080FFFFF0B5D646F8
:1035E0004F464646C0B584B008F02EFE0BF0FAFBFD
:1035F000FA220300022173480CF00AFE012014F0A5
:10360000D1FB714B714A1860C3021340112213435E
:103610006F4A80011360A022D20594466D4A60442F
:1036200002606D4A6D4E426000226D498260036106
:10363000306813F081FF6B4B6B49186033686B4F38
:1036400098466B4B41441B68FD7C99464B1E994143
:103650000400063128000BF0C1FA012128000BF00C
:10366000FFFA80235B020093E31CE2011B03134378
:10367000604A052013408022D20513430193AB0218
:103680002B435D4D1D435D4B039502930DF058F8A0
:1036900010F0A5FE5A4910F03CFE824610F0F8FEEC
:1036A00085B20023002D0ED0280010F098FE011CDA
:1036B000504610F028FE8721C90510F03EFE10F09C
:1036C000E7FEC3B21B022D04220040461D434946BB
:1036D0006B46009514F090F807204A490BF0E2FB86
:1036E000012107200BF09AFB4749306813F024FFB3
:1036F000464B34681860464BFF7C1E68012300224D
:103700000500BB403100200013F0CCFF364B3800E1
:10371000E1184B1E994106310BF060FA3800012187
:103720000BF08CFA0021380001220BF06FFA802395
:103730005B020093FB0303932B000833EA011B0396
:103740001343344A3F0613403B430193324B052059
:1037500002930CF0F5FF10F042FE294910F0D9FD5C
:10376000804610F095FE87B20023002F0ED038005F
:1037700010F035FE011C404610F0C5FD8721C9053B
:1037800010F0DBFD10F084FEC3B21B023F042A00E0
:103790001F4331006B462000009714F02DF82200E3
:1037A00080232D32FF329B01134302221A60012332
:1037B000B34022681343236004B0E0BCBA46B1466C
:1037C000A846F0BD7C400020C4400020F17F00FFEF
:1037D000A43F0020904000201000205050210020E5
:1037E000C04102103C4000200000E0AF2C3C002013
:1037F0008C400020FFFFFF9F0000104000000C40A5
:103800000000614A3D350010B841021038400020E8
:1038100054210020FFFFFFE000000C80012310B5C1
:10382000134C1449207E82081A400A70C0081249BD
:1038300003400B70002A0ED1002B0CD10F4816222A
:10384000A11C013011F08EF80AF0CAFA0C4B186076
:103850000C4B186010BD0C4B1B78002BEED10AF0FE
:10386000BFFA0A4B1B68C01A3228E7D8ECE7C046FB
:10387000444000205522002054220020F44900201A
:10388000AC470020A847002056220020B047002067
:10389000F8B5CE464746774BC200060080B5D558EE
:1038A000202803D8744A8300D3589F46734C744B26
:1038B0002380FF2E00D0D6E0002363806360237254
:1038C000FF220125A378617859180B0A5B18E1786B
:1038D000134059180B0A5B182179134059180B0A29
:1038E0005B18617913405B18190A5B18A1791340C2
:1038F0005B18190A5B18E17913405B18190A5B1809
:1039000029001340227A9B181A0A9B18DB435D4A50
:10391000637212685C4B91401E68336830008B43C1
:1039200033605A4B1F685A4B3900DB7C99462B0099
:103930004A46934098461A0013F062FE43464246B8
:103940003900300013F0AEFE484601210BF088F933
:103950002A003B1D9A4080239B0133431A60A0221A
:10396000BD40D20594460A2233681D43494B356059
:103970001B689B0163441C60DA610AF031FA464B14
:1039800002301860C0BCB946B046F8BD002D65DBFA
:10399000280010F029FD10F097FD404A404B0EF032
:1039A000B8FE0EF06BFF030A020CC1B2DBB2D2B25A
:1039B000050E324C3248208010203A4F7600A0701D
:1039C000F05B6171E070000A2071A371E2712572F1
:1039D00076E7EB17E8180A2158400EF023FC430065
:1039E00018180A2140000EF01DFC002DDBDA80259E
:1039F000ED050543C1B22B0A2A0CDBB2D2B22D0E63
:103A0000D7E7EB17E8180A2158400EF00BFC4300EB
:103A100018180A2140000EF005FC002D19DB802546
:103A20002D060543C1B2E6E7AF202421800068439C
:103A30000EF0F8FB0500C1B2DDE70A212800F7E728
:103A400064212800F4E7FA21280089000EF0C2FB67
:103A5000F0E7C0252D060543C1B2CCE700250022C2
:103A600000230021A5E72B0A2A0CE9B2DBB2D2B26F
:103A70002D0EA1E7C8400020904002109040002089
:103A80000822000054210020502100208C400020FA
:103A90002C3C0020C44000209049002014CE6E2D04
:103AA00093E1C83FA84A0020F8B5DE4657464E4687
:103AB0004546FA20E0B50AF0A7F9A022D2059446BF
:103AC000274B1B689B0163441B69DB0139D4254BE1
:103AD00025491A68254D01321A6024239C46244B3F
:103AE000934699460A00234E8C441078C300EB1885
:103AF0001F1D1B79002B09D08300984644464B4676
:103B0000A4591B5CA24653449B4520D20132624516
:103B1000EBD1184E184A0878C300EB181F1D1B790B
:103B2000002B08D0830098464446A459135CA14654
:103B30004B449B450BD201316145ECD1FF20FFF78F
:103B4000A7FEF0BCBB46B246A946A046F8BDFFF7AB
:103B50009FFE00235A463B704346F250F1E7C046B1
:103B6000C440002040400020D44B0020C84000202A
:103B7000804B0020A83F0020A44B0020F0B5DE467B
:103B800057464E464546E0B58B4C83B0E37CFF2B51
:103B90006DD08A4D2B68002B64D1894B894C984697
:103BA000894B99462268EFF3108172B61368002B97
:103BB000FCD0BFF35F8F238962899B1A02D5E2890B
:103BC00001329B182268BFF35F8F0026166081F3D5
:103BD0001088002B4BD06B462000991D0CF062FB27
:103BE0006A466B460621525EDB88002A11DB774D60
:103BF000DBB2297800290FD001293FD1724A16780B
:103C0000002E01D1FF2B68D102222A70704A537016
:103C1000C8E76E4DDBB22E70182B00D170E011D8C2
:103C2000082B5FD00D2B67D11021654A1170694AAE
:103C3000083911700021644A117001222A70644A07
:103C40001370AFE7232B57D126215D4A1170614ACB
:103C50000E39117000215C4A117001222A705C4AF1
:103C600013709FE70AF0BCF82B68984256D803B04F
:103C7000F0BCBB46B246A946A046F0BD504A5448E7
:103C80001278435493465B464A1CD2B292462A703D
:103C9000022B00D886E700220027FF26D34500D05C
:103CA00080E783185B780132FB189BB21F0ADB198F
:103CB00033401F00D3B29942F3D8FF2F6DD1454B4B
:103CC0001B78102B63D1404B1B78002B6BD04378B3
:103CD000222B6BD000232B7064E73F4810F0AAFF23
:103CE0002E705FE70A21364A1170012236492A7088
:103CF0000A70374A137055E7384810F09BFF51E7B8
:103D00001B2241460A7033490B3A0A700022494689
:103D10000A7001322A702E4A137043E70126304F91
:103D2000304B38681968E37C99460368984633003D
:103D300042468B409A43026033004A469340002239
:103D400013F0B0FC284B3F681B68E47C98463300B6
:103D50000022A3404146380013F0A4FC01212000BA
:103D60000AF06CFF0122002120000AF04FFF4346B9
:103D7000320004339A4080239B013B431A60424641
:103D800096403B681E4300233E602B606FE7002394
:103D900016482B7010F04EFF04E7002314482B70D8
:103DA00010F048FFFEE6FFF739FD93E78378102B0C
:103DB00090D1FFF779FE8DE72C3C00209049002040
:103DC000C54F00207C400020B54F0020C64F00208A
:103DD00044400020C04F0020404102101441021016
:103DE000502100208C4000205421002090410210DE
:103DF0006C4102108022F0B5C6460121134B144ECF
:103E0000920000B51A603368124D083399402A6851
:103E100082B05068084214D16946CC1D0E49012772
:103E200088469B009B5821001B0E404623700CF0D7
:103E300001FA390033682A6808339940506808420B
:103E4000EFD002B080BCB846F0BDC04680E200E0D2
:103E50005C2100205821002044420020074A002312
:103E60004281002203600371037283818361C385F1
:103E70003033C2540633C2547047C0460F27000087
:103E8000F0B5D6464F464646C0B584B080460AF0E7
:103E9000A9FFFA22534C03005200012120000CF02C
:103EA000B7F9092050490AF0FDFF012109200AF065
:103EB000B5FF4E4D4E49286813F03EFB4D4B2D6823
:103EC0001E684D4B07005B7C3100994601234A4632
:103ED00028009340002213F0E5FB484B4846E918C0
:103EE0004B1E994106310AF079FE01214846002215
:103EF0000AF08CFE80235B0200934B46DB030393A6
:103F00003B000833FA011B0313433D4A05201340CD
:103F10004A461206134301933A4B02930CF010FCED
:103F200010F05DFA384910F0F4F9824610F0B0FA5A
:103F300083B299464A460023002A0ED0484610F024
:103F40004EFA011C504610F0DEF98721C90510F029
:103F5000F4F910F09DFAC0B203024A461004184367
:103F60003A006B4631000090280013F045FC2A000F
:103F700080232D32FF329B01134302221A6001235A
:103F8000B340FA202A68002113432B6080000BF015
:103F900057FE002503E0694620000CF083F92268F3
:103FA000EFF3108172B61368002BFCD0BFF35F8F64
:103FB000238962899B1A02D5E2890132D3182268CB
:103FC000BFF35F8F156081F31088002BE3D1372397
:103FD00000224146CA5404B0E0BCBA46B146A846E5
:103FE000F0BDC04644420020F53D0010582100209D
:103FF000204302105C2100202C3C00200000E0AF98
:10400000FFFFFFE000000C8000009648F0B5C646B8
:1040100000B53A4C84B0637CFF2B67D04423102258
:10402000E35C9343452B65D1354D3649286813F041
:1040300083FA354B2D681860344BA47C1F6801232C
:10404000A340984606001A003900280013F0D8FA59
:10405000424643463900280013F024FB2C4B200035
:10406000E9184B1E994106310AF0B8FD80235B0226
:104070000093F31CF2011B031343264A052013404F
:104080008022D20513430193A3022343224C1C43F5
:10409000224B039402930CF053FB10F0A0F920493B
:1040A00010F037F9804610F0F3F984B20023002CA9
:1040B0000ED0200010F093F9011C404610F023F9B7
:1040C0008721C90510F039F910F0E2F9C3B21B02DB
:1040D000240432001C4339006B462800009413F07E
:1040E0008BFB0123BB402A6813432B6004B080BCC8
:1040F000B846F0BDFFF7C4FEF8E7C0462C3C0020F0
:104100005821002028430210404200205442002041
:104110000000E0AFFFFFFF9F0000104000000C40D8
:1041200000009647F0B5C64600222F2530213E23D9
:1041300000B542554254C35C0400072B43D02CD831
:10414000022B36D0062B30D1012318009D4DE97A81
:1041500008400B4200D171E0A97A032900D12DE17A
:104160002E23E254984B61721A702F23E95C0520CC
:1041700009F058FEEB7ADB0700D5FAE02F23E35C69
:10418000002B12D03023E35C002B0ED000232F2213
:10419000A35401320120A35408E0122B05D12E268E
:1041A000835D002B66D101334354002080BCB846A8
:1041B000F0BD0123844A03701278002A70D1802355
:1041C0005B00C385F1E7012318007E4D697D08403F
:1041D0000B4242D0297D032900D1EBE02E23E2548B
:1041E000794B61721A70E97D052009F01BFE6B7D29
:1041F000DB0700D5C3E0A88864210EF013F8AB7983
:1042000089B20902C918EB790902C9180902FF31FC
:1042100021612B7A6A7A1B029B18AA7A1B029B18CF
:10422000A2691B0263619342A8D00620A36109F032
:10423000F9FD0720616909F0F5FD9FE72E22AB7AB1
:10424000A054614A63721070032B00D08DE72F23B6
:10425000E95C6431C9B2E95489E72E222B7DA05470
:10426000594A63721070032BBDD1E97D6431C9B224
:10427000E975B9E7534F0220396909F0D3FDA35D11
:10428000002B08D0FA21B86989000DF0A3FF0100C6
:10429000032009F0C7FD30220121635DA15473E7BB
:1042A0002E22484D83546968012009F0BBFD00208F
:1042B000A96809F0B7FD0A2128690DF08BFF0100FC
:1042C000042009F0AFFD266A002E5FD06A68636A99
:1042D000981A10F089F8AB688046F01A10F084F84C
:1042E000011C10F02AF8A76A061C391C404610F081
:1042F00024F8011C10F021F8311C10F007F810F020
:10430000EDF8324910F019F810F090F801B2A183DD
:104310000A2009F087FD626A6B68981A10F064F849
:10432000236A061CA868C01A10F05EF8A16A0FF094
:10433000F0FF10F07BF8404210F056F8311C10F0FE
:10434000EFF823490FF0F9FF22490FF0DFFF10F0DB
:104350006DF801B2030402D56931FF3109B2A185BC
:10436000092009F05FFD30232F220121E35CA154D5
:104370000AE7A98D0820618109F054FDFEE64C236F
:10438000E95A0820618109F04DFD34E7AB68A8685F
:1043900023626B680026636210F026F80E490FF066
:1043A000CCFF0E490FF0C9FF10F0A8F8B046071C6B
:1043B000A0629AE7044A6172137056E7024A61727A
:1043C000137044E790340020B84F00208262363CDE
:1043D000E12E65420000B44295BFD63335FA8E3CDB
:1043E000F0B5C64600B57B4C82B005002268EFF3FD
:1043F000108172B61368002BFCD0BFF35F8F238946
:1044000062899B1A02D5E28901329B182268BFF3A8
:104410005F8F0020106081F31088002B29D06E4B35
:10442000002698466D4F2268EFF3108172B613682C
:10443000002BFCD0BFF35F8F238962899B1A02D5C2
:10444000E28901329B182268BFF35F8F166081F307
:104450001088002B0DD06B462000D91D0BF022FFD9
:104460000028E0D03723EB5C082BDCD89B00FB58FE
:104470009F4602B080BCB846F0BD37230822EA54FC
:10448000033BEA5C6B46DB799A42CCD036230122AF
:10449000EA546B8E01336B86C5E734226B46D979BB
:1044A000AB5CCB18DBB2AB540132A85C1B18AB542D
:1044B000AB8F632B01D84246D15401336A8F9BB234
:1044C000AB879A42AFD837230722EA54ABE73723AA
:1044D00006223421EA546B46DA796B5CD318DBB2DE
:1044E0006B540131685C12021B186B546B8F9B1864
:1044F000AC229BB26B875200934252D93623583A72
:10450000FF3AEA54AE878EE7372305223421EA5476
:104510006B46DA796B5CD318DBB26B540131685CA3
:104520001B186B546A877EE7372304223421EA5430
:104530006B46DA796B5CD318DBB26B540131685C83
:104540001B186B543E23EA546DE737230322EA54C9
:104550006B46DB793532AB541A021A43AA86012B1B
:1045600000D160E736230122EA545CE76B46DB7931
:10457000622B2AD03723EE5455E76B46DB79B52BF7
:1045800000D050E74B33EB864DE73723EE54023B28
:10459000EA5C6B46DB799A420BD06B8E01336B86FB
:1045A00041E7AE87002B00D03DE737230722EA54CE
:1045B00039E7AB890133AB813623EB5C002B00D0AC
:1045C00031E72800FFF7AEFD2DE737230222EA543A
:1045D00029E7C0464442002090340020E441021004
:1045E000F0B54E46DE4657464546E0B5C84E040097
:1045F000737C87B0FF2B00D18EE04378022B00D173
:10460000BBE000D984E0002B00D18CE009F0F8FB7E
:10461000C04D2B68C01AC04B98427DD9BF4B9A46FB
:104620001B689846BE4B40469B461B689946BD4B4F
:1046300049461A680092B77C0126BE40330032001A
:1046400012F0DEFF330032004946404613F02AF8EC
:10465000B549380041444B1E994106310AF0BEFA73
:104660008023009A5B020293D31C1B03D2011343E5
:10467000AE4A02AE13408022D20513437360BB02E0
:104680003B43AB4F05201F43AA4BF760B3600CF0D0
:1046900057F80FF0A4FEA8490FF03BFE01900FF071
:1046A000F7FE87B20020002F00D0A9E03F043300BE
:1046B000074349464046009A029713F09DF8434647
:1046C000012219684846130083400B4341460B60A2
:1046D00000236380534619685B4626261B68B44650
:1046E00018000127183082409448043384449E0007
:1046F0003F1A4B681342FCD0037873503B180130CB
:1047000063806045F5D10223637000232B6003E0D2
:10471000032B01D1FFF764FE07B0F0BCBB46B246E5
:10472000A946A046F0BD4423F35C452B78D0794DD3
:104730002F68002F7AD009F063FB2B68C01A804BDA
:104740009842E9D9754B7F4E1968754B01221B6859
:10475000370018000433183082401C3798004B682B
:104760001342FCD0337801364350BE42F7D10123C7
:10477000637009F045FB2860CEE7664D2B68002B7F
:1047800012D009F03DFB2B68C01A6F4B9842C3D979
:104790006688B72E0DD96D4A13780133DBB21370DA
:1047A000002B3DD12B60B7E7438009F029FB28603F
:1047B000E7E75A4B00271968594B01221B68B0469E
:1047C0001800AA4618308240BC46701C604F80B268
:1047D0000433B8449E003F184B681342FCD0654632
:1047E00043465B5D735060807B5D0125A9460130C7
:1047F000CC4480B2B52B00D185E0B928ECD18BE751
:1048000038000FF0ECFD011C01980FF07CFD8721B2
:10481000C9050FF092FD0FF03BFEC0B2000245E764
:104820002000FFF72DFB0323637075E73B4B1B68EC
:1048300098463B4B40461B6899463A4B49461B6895
:104840009B46B37C01269E409A463200330012F00C
:10485000D7FE330032004946404612F023FF32496A
:10486000504641444B1E994106310AF0B7F9802366
:104870005B0202935B465A460333D2011B03134388
:104880002A4A02AE13408022D20513437360534676
:104890009A021A43264B05201343F360254BB3605D
:1048A0000BF04EFF0FF09BFD2A490FF032FD8246C0
:1048B0000FF0EEFD83B20093002B0ED018000FF026
:1048C0008EFD011C50460FF01EFD8721C9050FF01B
:1048D00034FD0FF0DDFDC7B23F02009B5A461804BD
:1048E0004946330007434046029712F085FF43468E
:1048F00049461A6801238B4013434246136009F06E
:104900007FFA286017E7554609F07AFA286003E72E
:104910002C3C002028340020C0C62D005821002047
:1049200054420020404200200000E0AFFFFFFF9F04
:104930000000104000000C40000096482442021085
:10494000404B4C004C420210409C0000BD4F0020E8
:104950006842021000009647F8B5DE4657464E46BC
:104960004546E0B50127A64C07700500617B052090
:1049700009F058FAE67A052E0BD948224623A05AA8
:10498000E35A000418430FF083FD2F72E880062ECF
:1049900006D10020F0BCBB46B246A946A046F8BDF1
:1049A000617B0520643109F03DFA44224223A05A7C
:1049B000E35A0004184393490FF0BFFC0FF036FD93
:1049C0000100022009F02EFAE38AA68B9846638B39
:1049D000278B9C463304464699463F043E433000AD
:1049E0004F4666463E430022874B31000DF091FE54
:1049F0000DF020FF0100012009F014FAE38BA68CD2
:104A00009846638C278C9C463304464699463F045F
:104A10003E4330004F4666463E437B4B002231000A
:104A20000DF077FE0DF006FF0100002009F0FAF905
:104A3000268DE38C36041E430021301C0FF0CAFC87
:104A4000002800D196E06F49301C0FF076FC0FF083
:104A5000EDFC0100042009F0E5F94C224A23A05A9C
:104A6000E35A0004184367490FF067FC0FF0DEFCBF
:104A70000100032009F0D6F92B6A9A46002B00D1D9
:104A80007DE0E38BA68C9946238C4F461B049C4605
:104A9000638C00229846330466469B4637433800B1
:104AA0005E4647463743584B39000DF032FE0DF055
:104AB000C1FEE38A06009846238B47461B049C46AA
:104AC000638BA48B9946230464469B462743380096
:104AD0005C464F46274300224B4B39000DF019FE30
:104AE0000DF0A8FE53460400981B0FF07DFC6B6A86
:104AF000071C181B0FF078FCAB6A391C8146381C68
:104B000098460FF01AFC071C414648460FF015FC6A
:104B1000011C0FF012FC391C0FF0F8FB0FF0DEFC4B
:104B20003A490FF00AFC0FF081FC6B6AA883E01A87
:104B30000FF05AFC2B6A041CF01A0FF055FCA96AFE
:104B40000FF0E7FB0FF072FC40420FF04DFC211C10
:104B50000FF0E6FC2E490FF0F0FB2E490FF0D6FBCC
:104B60000FF064FC03B2020401D56933FF33012066
:104B7000AB850FE70021042009F054F96DE7E38BC2
:104B8000A68C9846638C278C9C46330446469946EF
:104B90003F043E4330004F4666463E4300221A4BD8
:104BA00031000DF0B6FD0DF045FE2862E38A278B3B
:104BB0009846638BA48B9C462304444699463F0445
:104BC0003C4306004F46200064463C4300220E4B07
:104BD00021000DF09EFD0DF02DFE686204003000F6
:104BE0000FF002FC0C490FF0A8FB0C490FF0A5FBDD
:104BF0000FF084FC00278046B946A86284E7C046CF
:104C0000583500200000C842D01263418262363C11
:104C1000E12E65420000B44295BFD63335FA8E3C92
:104C200030B50400394883B00268EFF3108172B6E2
:104C30001368002BFCD0BFF35F8F038942899B1A56
:104C400002D5C28901329B180268BFF35F8F00252D
:104C5000156081F31088002B01D103B030BD6B4685
:104C6000D91D0BF01FFB0028F7D03723E35C062B80
:104C7000F3D8274A9B00D3589F466B46DB79032B1A
:104C80003DD037230022E254E7E7224A1378592B1C
:104C900007D8591CC9B211706A46D0791E4AD0543F
:104CA0000B005A2BD9D12000FFF756FEE9E76B46DF
:104CB000DB79BA2BD1D10122833BE254CDE76B469D
:104CC000DB79CE2BDDD10222973BE254C5E76B4660
:104CD000DB79502BD5D10322193BE254BDE76B465B
:104CE000DB79002BCDD104223733E254B5E76B4694
:104CF000DB79012BC5D105223633E254ADE73722EB
:104D00000333A354034A1370A7E7C046444200206C
:104D100008420210B74F00205835002070B50B4DE7
:104D200004006B7CFF2B0BD04426AB5D10221900D6
:104D30009143452902D1FFF753FCAB5D432B00D0D3
:104D400070BD2000FFF76CFFFAE7C0462C3C002046
:104D5000FE239B050360002343608360C3607047AC
:104D600000230380438083807047C0460023036094
:104D7000436083607047C046F0B58022C64601217B
:104D8000124B134E00B51A603368124D0833994028
:104D90002A6882B05068084214D16946CC1D0E4979
:104DA000012788469B009B5821001B0E404623701C
:104DB0000BF040FA390033682A680833994050688C
:104DC0000842EFD002B080BCB846F0BD80E200E0FF
:104DD000642100206021002074420020F0B5DE46EE
:104DE000574645464E46E0B57F4C2D220021200017
:104DF00083B00FF0B1FD7D4B7D222380A023E370B3
:104E0000753BE2547A4B5F7A9846FB1E012B6DD9B5
:104E10000121F423042F00D8E4E02D22754E29202F
:104E2000E2762254B26A637530236068A1757249D4
:104E3000A27602008C46E375704B71492383714B57
:104E4000414071481A40624401405140A2680D003F
:104E500016001D401E404A400240AD195540E26810
:104E60002E0011001E4019405540891905404D4043
:104E700021692E000A001E401A4069400140656900
:104E800092194A4011002E0019401E406A4002400B
:104E9000A569891951400A002E001A401E40694038
:104EA0000140E56992194A4011002E0019401E4048
:104EB0006A400240891951400A00A56A1A406940B7
:104EC0002B400140D3184B401A041902120E9A18B5
:104ED000090E52181B0ED31801202C22A35403B024
:104EE000F0BCBB46B246A946A046F0BD414EC82123
:104EF000B0690DF06FF9FA21A07133698900D8000B
:104F0000C01880000DF08EF9E07180B2000A2072A6
:104F100030686421C30F6372C317C01858400DF086
:104F200059F93A4981460DF07DF94D006D186D0033
:104F3000280037490DF076F9344983B248469A463D
:104F40000DF070F964239B465B46584350446081E2
:104F500050462F4B642158432D1AA581B0689946BD
:104F6000C30FA373C317C01858400DF033F9274976
:104F700082460DF057F94D006D186D004946280026
:104F80000DF050F9214982B2504601920DF04AF9D4
:104F90005B46019A43439446484663449BB2E3739D
:104FA0001B0A2374434650432D1AADB265742D0A73
:104FB000A5741C229B5E6421E3741B122375434677
:104FC0002C229A5ED30F9B185B102377306A0DF06A
:104FD00001F90300F533FF3399B2090ADBB20D4A38
:104FE000D25D1CE7034EFAE7203300207C8AFFFFE6
:104FF000EC410020C84000207C0A002075780000A9
:105000007C8A00A07F7F7F7F80808080A0860100D7
:10501000102700004C430210F0B5D6464F464646D6
:10502000C0B584B009F0DEFEFA2203000121724807
:105030000BF0EEF8012012F0B5FE704B704A1860CC
:10504000C3021340112213436E4A80011360A02251
:10505000D20594466C4A604402606C4A6C4E4260D1
:1050600000226C4982600361306812F065FA6A4B75
:105070006A49186033686A4F98466A4B41441B6816
:10508000BD7D99464B1E994104000631280009F068
:10509000A5FD80235B020093C0231B030293631DC5
:1050A000E2011B031343604A052013408022D2050E
:1050B00013430193AB022B435C4D1D4303950BF04F
:1050C0003FFB0FF08CF95A490FF023F982460FF09D
:1050D000DFF985B20023002D0ED028000FF07FF9F4
:1050E000011C50460FF00FF98721C9050FF025F973
:1050F0000FF0CEF9C3B21B022D04220040461D431F
:1051000049466B46009512F077FB0720494909F0A4
:10511000C9FE0121072009F081FE4749306812F0DD
:105120000BFA464B34681860454BBF7D1E6801235F
:105130000500BB4000223100200012F0B3FA374BCB
:105140003800E1184B1E9941063109F047FD012155
:105150003800002209F05AFD80235B020093C0232F
:105160001B030293FB0303932B000833EA011B0389
:105170001343344A3F0613403B43052001930BF091
:10518000DFFA0FF02CF92A490FF0C3F880460FF030
:105190007FF987B20023002F0ED038000FF01FF9DF
:1051A000011C40460FF0AFF88721C9050FF0C5F884
:1051B0000FF06EF9C3B21B023F042A001F433100F7
:1051C0006B462000009712F017FB220080232D323F
:1051D000FF329B01134302221A600123B34022686D
:1051E000134300222360184B1A7004B0E0BCBA4687
:1051F000B146A846F0BDC04674420020C04200201F
:10520000F17F00FF684200208C42002010002050F7
:10521000602100205C430210704200200000E0AFDB
:105220002C3C002084420020FFFFFF9F0000104024
:1052300000001648794D0010544302106C420020C3
:1052400064210020FFFFFFE0C94F002070B5864CAD
:105250002D22002120000FF07FFB844B7D22238034
:10526000D023834DE370A53BE2543133EB5C002B3C
:1052700000D0E1E06C23EB5C002B00D0D6E084236F
:10528000EA5C703B002A05D08022AA581100133135
:1052900000DBC7E023748C23EA5C783B002A05D04E
:1052A0008822AA581100133100DB98E06374BC23F4
:1052B000EB5C002B00D09BE09C23EB5C002B00D030
:1052C000A4E00C235B42E3750D3323769423EB5C5F
:1052D000002B00D181E09023664AEB58944663444A
:1052E0009BB263761B0AA3767823E376143BEB5CD0
:1052F000002B00D0B2E07423EB5C002B00D0A7E0C1
:105300007C23EB5C002B00D09CE0206862680100ED
:105310001500594B424059481D4019400240491957
:10532000A56851400A002E001A401E40694092199B
:1053300001405140E2680D0016001D401E404A40E9
:1053400002402169AD1955402A000E001A401E4046
:105350004D4092190540554062692E0011001E40D3
:1053600019406A400240A569891951400E002A007F
:105370001E401A4069400140E56992194A401600F2
:1053800029001E4019406A400240256A891951408F
:105390000E002A001E401A4069400140656A9219B9
:1053A0004A40160029001E4019406A4089190240EF
:1053B00051400A00A56A1A4069402B400140D318A9
:1053C0004B401A041902120E9A18090E52181B0E9D
:1053D000D3182C220120A35470BD264B81E7130063
:1053E0001433DBB26374BC23EB5C002B00D163E7A6
:1053F000B8230A21E85808F0E5FC83B21B0AA3751C
:105400009C236075EB5C002B00D15AE79823642144
:10541000E85808F0D7FCF530FF3083B21B0AE0757E
:10542000237653E713001433DBB233E76421A86E0D
:1054300008F0C8FCE08122E76421A86D08F0C2FCF6
:10544000A08117E70A21A86F08F0BCFC20845CE764
:105450006421286F08F0B6FCE08351E76421286ED0
:1054600008F0B0FCA08346E7203300207C8DFFFFCE
:10547000C8400020307500007F7F7F7F8080808063
:10548000F0B5C64600B58A280BD000248D2804D17B
:10549000FFF7DCFE041E0CD10024200080BCB846BF
:1054A000F0BD1D4B1B78002BF6D0FFF797FC041EB8
:1054B000F2D001252900194A194B12681E68914043
:1054C0002A00336830008B433360164B1F68164B3D
:1054D00039009B7D9A409046130012F091F84346A4
:1054E00042463900300012F0DDF82A003B1D9A4098
:1054F00080239B0133431A60A022BD40D20594460D
:1055000033680A4A1D430A4B35601B689B0163449C
:105510001A602D22DA61C0E7EC41002064210020EE
:1055200060210020844200202C3C002020330020F9
:10553000C0420020F8B5CE46474680B5544CA37D06
:10554000FF2B17D0534D2B78022B00D17AE015D8C2
:10555000002B52D008F054FC4F4C2368C01A4F4B1C
:10556000984207D94E4B1878FFF78AFF002800D0E1
:1055700087E02870C0BCB946B046F8BD032BF9D10E
:1055800008F03EFC444B1B68C01A464B9842F1D9C8
:105590000126454F454B38681968A37D9946036835
:1055A0009846330042468B409A43026033004A4695
:1055B0009340002212F076F83D4B3F681B68A47DB3
:1055C000984633000022A3404146380012F06AF8A2
:1055D00000220121200009F019FB43463200043368
:1055E0009A4080239B013B431A60424696403B68A9
:1055F0001E4300233E602B70BCE72E480268EFF389
:10560000108172B61368002BFCD0BFF35F8F038943
:1056100042899B1A02D5C28901329B180268BFF3E6
:105620005F8F0024146081F31088002BA2D01C4CE3
:1056300021000AF037FE204E3378802B14D02378D7
:10564000337097E7A022D20594461C4B1B689B0140
:1056500063441B69DB0100D58CE703232B7008F042
:10566000CFFB0D4B186085E723788D2B01D08A2B5B
:10567000E6D101232B7008F0C3FB074B1860237899
:10568000DEE702232B7008F0BBFB206072E7C04608
:105690002C3C0020C94F00208842002088130000C5
:1056A000B24F0020A8610000602100208442002049
:1056B0006421002074420020B34F0020C04200202B
:1056C000F0B58022CE46474601211C4B1C4E80B5CA
:1056D0001A6033681B4D083399402A6883B05068BC
:1056E000084226D16946CC1D012188461649174F2C
:1056F000894607E0414633682A6808339940506874
:10570000084216D19B009B5821001B0E38002370C5
:105710000AF090FD2378042BECD108F071FB4B4686
:105720004146186033682A68083399405068084237
:10573000E8D003B0C0BCB946B046F0BD80E200E09E
:105740006C210020682100209C470020D0460020CA
:10575000F0B54546DE4657464E460023E0B5A44C1C
:10576000A44D23702B70A44B95B0DA7DFF2A00D195
:10577000DCE001222A700A32627003321392129224
:10578000013A11921092013A0F920E92013A0B9245
:105790000A92013A07920692013A904691460427EE
:1057A00005260620023A0292013201920892013A3D
:1057B0000C92013A0D92013A0992013A0592023A8D
:1057C000944611000132039204921A7EFF2A32D0CD
:1057D0000C22924662465146A154049A2A700F2226
:1057E00094466146039A0396A1544246029E029251
:1057F0000B9ABC469046119A07000B92099A0198A1
:1058000004920C9A09924A460C920A9A9146109A6E
:105810000A92079A01920F9A0792139A0F92059A89
:1058200011000D9A0592089A0D92069A08920E9A06
:105830000692129A0E925A7EFF2A0AD070229A5C21
:105840009346012252429246D3445A46012A00D836
:1058500082E09A7EFF2A04D070229A5C022A00D14C
:10586000A3E0664A1278002A03D1654A1278002A1A
:1058700049D01322924662465146A154049A2A7096
:10588000122294466146039AA1545A7FFF2A0ED0F1
:10589000059A2A701722E255019A370006000298ED
:1058A000029242460192079A9046069A91465B7C84
:1058B000FF2B10D00123E3550023029AA355053393
:1058C0002354033BA354019A0133A3544B4642464D
:1058D0002B700423A35400264A480FF0FFFA4A4FC6
:1058E000A15D38000FF0FAFA01362B78F6B2B34218
:1058F000F6D20A200FF052F915B0F0BCBB46B24602
:10590000A946A046F0BD414A1278002AB1D1019AB9
:1059100005910792089A01900692029A38009046E3
:105920000C9A029691466746039EAEE70D221392AB
:105930001292013A11921092013A0F920E92013A8C
:105940000B920A92013A07920692013A90469146CA
:1059500003270426052025E7102292462970624677
:105960005146A154089A0C924A460892069A9146CA
:105970000A9A06920E9A0A92039A03979446019AFB
:10598000370006000298029242460192079A90461A
:105990000B9A07920F9A0B92049A1100059A04929F
:1059A000099A05920D9A099253E71122924629709D
:1059B00062465146A154089A0C924A460892069AA9
:1059C00091460A9A0692039A03979446049A3700DE
:1059D0001100019A06000298029242460192079A2B
:1059E00090460B9A0792059A0492099A059238E715
:1059F000BC470020D24F00202C3C0020C02E0020AD
:105A0000182F0020844302109C430210702F0020A6
:105A1000F0B5D6464F464646C0B584B009F0E2F927
:105A200032220300012171480AF0F2FB012012F03A
:105A3000B9F96F4B6F4A1860C30213401122134328
:105A40006D4A80011360A022D20594466B4A6044DF
:105A500002606B4A6B4E426000226B4982600361B8
:105A6000306811F069FD694B694918603368694F06
:105A70009846694B41441B68BD7D99464B1E994130
:105A800004000631280009F0A9F880235B02009386
:105A9000C0231B030293E31CE2011B0313435F4A71
:105AA000052013408022D20513430193AB022B4300
:105AB0005B4D1D4303950AF043FE0EF090FC5949DF
:105AC0000EF027FC82460EF0E3FC85B20023002D89
:105AD0000ED028000EF083FC011C50460EF013FC83
